:100000000C94F7030C9414040C9414040C9414042E
:100010000C9414040C9414040C9414040C94140400
:100020000C9414040C9414040C94191A0C94D519FF
:100030000C94282D0C9414040C9414040C941404A3
:100040000C9414040C9414040C9414040C941404D0
:100050000C9414040C94B8150C9414040C9414040B
:100060000C9414040C9414040C9414040C941404B0
:100070000C9414040C9414040C9414040C941404A0
:100080000C9414040C9414040C9414040C94140490
:100090000C9414040C9414040C9414040C94140480
:1000A0000C9414040C9414040C9414040001010125
:1000B0000101010101010202020202020202020325
:1000C00003030303030303040404040404040505F5
:1000D00005050506060606060707070707080808B8
:1000E00008090909090A0A0A0B0B0B0C0C0C0D0D67
:1000F0000D0E0E0E0F0F0F101011111112121313FF
:100100001414151516161717181819191A1A1B1B77
:100110001C1D1D1E1E1F20202122222324242526D3
:1001200026272829292A2B2C2D2D2E2F303132320B
:10013000333435363738393A3B3C3D3E3F40414217
:10014000434445464748494A4C4D4E4F50515354FD
:10015000555658595A5B5D5E5F61626465666869B1
:100160006B6C6D6F7072737577787A7B7D7E808231
:10017000838587888A8C8E8F91939596989A9C9E7A
:10018000A0A2A3A5A7A9ABADAFB1B3B5B7BABCBE8A
:10019000C0C2C4C6C9CBCDCFD1D4D6D8DBDDDFE257
:1001A000E4E7E9EBEEF0F3F5F8FAFDFF0100E1001A
:1001B0002B423200010000000100140015642E00E3
:1001C0002F00010001000900166219002D02010034
:1001D0000100074317680E0033002A0001000F00DA
:1001E00011610B442C41010001000D0010001B00A7
:1001F00000000100010001000000010000000100FA
:10020000A800A9000000AA000000010001000500EC
:1002100036001A00000001000100130006610A0008
:1002200008000100010012000468280026020100F5
:1002300001001C000C6234002702010001001D00B7
:100240001864370030000100010039002D0038002B
:100250000100000001000100010001000100000098
:1002600001000100E200010001000100500D2F0A11
:10027000E100070801000100090D1B08E300060862
:10028000010001004F0D300AE000190801000100D3
:100290000100010001000100000001000100010057
:1002A0000000010000000100010001000000010049
:1002B0000000010001000100010001000000010038
:1002C00001000401500001001D080100010052005E
:1002D0005100290001000100010008014F00350014
:1002E0000100010001000100010001000100010006
:1002F00001000100010001000100000001000100F7
:1003000001000100010000000100010001000100E6
:1003100001000100010001000100010001000100D5
:1003200001000100010001000100010001000100C5
:1003300001000100010001000100010001000100B5
:1003400000000100010001000000010000000100A8
:100350000100010000000100000001000100010097
:10036000010001000000010001000100F200010095
:10037000F40001000100F000F10001000100F500AF
:1003800001000100F3000100010001000100010073
:100390000100010001000100010001000100010055
:1003A0000100000001000100010001000100000047
:1003B0000100010001000100010001000100010035
:1003C0000100010001000100010001000100010025
:1003D0000100010001000100010001000100010015
:1003E0000100010001000100000001000100010006
:1003F00000000100000001000100010000000100F8
:1004000000000100010001000100010000000100E6
:100410000100240021001E0027000100010025002A
:1004200022001F000100010001002600230020001F
:1004300001000100010001000100010001000100B4
:1004400001000100010001000100000001000100A5
:100450000100010001000000010001000100010095
:100460000100010001000100010001000100010084
:100470000100010001000100010001000100010074
:100480000100010001000100010001000100010064
:100490000000010001000100000001000000010057
:1004A0000100010000000100000001000100010046
:1004B0000100010000000100010040003D003A0081
:1004C00043000100010041003E003B0044000100E8
:1004D000010042003F003C00450001000100010016
:1004E0000100010001000100010001000100010004
:1004F00001000000000000000000000000000000FB
:1005000000000000000000000000000000000000EB
:1005100000000000000000000000000000000000DB
:1005200000000000000000000000000000000000CB
:1005300000000000000000000000000000000000BB
:1005400000000000000000000000000000000000AB
:10055000000000000000000000000000000000009B
:10056000000000000000000000000000000000008B
:10057000000000000000000000000000000000007B
:10058000000000000000000000000000000000006B
:100590000000000000010101010101000101010151
:1005A000000000000000000000000000000001004A
:1005B000010001010101010101010101010101012C
:1005C000010101010101010101010101010101001C
:1005D0000000010100000000000000000000000019
:1005E000000000000000000000000000000000010A
:1005F0000101010000000000000000002A2B28007B
:1006000000000000000000000000000000000029C1
:10061000000000002C1E3420212224342627252E01
:10062000362D3738271E1F20212223242526333339
:10063000362E37381F0405060708090A0B0C0D0E65
:100640000F101112131415161718191A1B1C1D2F31
:100650003130232D350405060708090A0B0C0D0E51
:100660000F101112131415161718191A1B1C1D2F11
:100670003130354C05010902A10185020901A100B3
:100680000509190129051500250195057501810246
:100690009501750381010501093009311581257F17
:1006A00095027508810609381581257F9501750821
:1006B0008106050C0A38021581257F950175088190
:1006C00006C0C005010980A10185031A81002A83A3
:1006D00000160100260300950175108100C0050C6D
:1006E0000901A10185041A01002A9C0216010026B5
:1006F0009C02950175108100C005010906A10185C4
:1007000005050719E029E715002501950875018100
:10071000020507190029EF1500250195F0750181E3
:1007200002050819012905950575019102950175C4
:10073000039101C005010906A101050719E029E798
:100740001500250195087501810295017508810143
:100750000507190029FF150026FF00950675088179
:100760000005081901290595057501910295017586
:10077000039101C009023B00020100A0FA09040034
:1007800000010301010009211101000122400007BD
:1007900005810308000A09040100010300000009A3
:1007A000211101000122C0000705820320000A1266
:1007B00001100100000008EDFE0713010001020313
:1007C0000104033000000016034500720067006F4B
:1007D0000064006F007800200045005A0000000807
:1007E000035A0053004100000004030904001124CF
:1007F0001FBECFEFDAE0DEBFCDBF13E0A0E0B1E077
:10080000E8E1F6E602C005900D92A837B107D9F7E6
:1008100026E0A8E7B3E001C01D92A532B207E1F7D8
:100820000E94E02A0C94B6320C940000E8EDF0E04F
:1008300080818E7F80831092E2001092DA00109205
:10084000E100A0EEB0E08C9181608C9380818F7785
:10085000808319BCA7EDB0E08C918E7F8C93808152
:100860008F7E80831092E40508952091E4003091FA
:10087000E50095E6A9012091EC00822F817020FF10
:1008800006C08091E80080FF06C080E008952091B6
:10089000E80022FD1AC080910A06882389F085307D
:1008A00089F08091EB0085FD0FC02091E40030912C
:1008B000E50042175307F9F29150E1F684E00895FC
:1008C00082E0089583E0089581E00895EF92FF9219
:1008D0000F931F93CF937C018B010E943504C82F87
:1008E000811117C08091E80085FD0BC08091E80060
:1008F0008E778093E8000E943504882399F3C82FEF
:1009000008C0F70181917F018093F1000150110926
:1009100049F78C2FCF911F910F91FF90EF90089581
:1009200080910C0687FF13C08091E80082FF06C00B
:100930008091E8008B778093E80004C080910A06DC
:100940008111F2CF089580910A068823D9F380910E
:10095000E80080FFF8CF8091E8008E77ECCF982FE9
:100960009093E900242F762F50E0891731F0709191
:10097000EC002091ED005091F00021FD07C09F5F39
:10098000973071F78093E90081E008953091EB0092
:100990003E7F3093EB003091ED003D7F3093ED00D2
:1009A0003091EB0031603093EB007093EC002093BA
:1009B000ED005093F0002091EE0027FDE0CF80E0A5
:1009C0000895CF92DF92EF92FF920F931F93CF93F0
:1009D000DF93C8EDD0E088818F7E8883E7EDF0E07B
:1009E00080818160808384E082BF81E08093E40520
:1009F00088818E7F888302EE10E0F80110821092C9
:100A0000DA0081EEC82ED12CF601108288818F7712
:100A1000888388818068888388818F7D888319BCDA
:100A200010920A0610920B06109209061092080600
:100A300090EEE92EF12CF70180818B7F80838881F5
:100A40008160888342E060E080E00E94AF04F601AC
:100A500080818E7F8083F8018081816080838081A6
:100A600088608083F70180818E7F808388818061A8
:100A70008883DF91CF911F910F91FF90EF90DF90CE
:100A8000CF900895FC01809112069091130686176D
:100A90009707A0F06115710529F49091E8009E7701
:100AA0009093E80090E06115710551F4911108C030
:100AB0008091E80082FF34C080E00895BC01F2CF4D
:100AC00080910A068823C1F18530C1F18091E80048
:100AD00083FD30C08091E80082FDEACF8091E8007C
:100AE00080FFE1CF8091F3002091F200382F611553
:100AF000710519F02830310558F091E028303105A2
:100B000009F090E02091E8002E772093E800CBCF09
:100B100081918093F100615071092F5F3F4FE7CFC2
:100B200080910A06882341F0853041F08091E800E9
:100B300083FFBECF81E0089582E0089583E00895A9
:100B400080910A06843011F482E0089581E00895CE
:100B50008091E70508959091CD05803F41F4809103
:100B6000CE0587FD1092CE05992371F00895813F3F
:100B700029F48091CE051816ACF3F6CF823F81F4AC
:100B800097FFF2CF1092CD058091CE059091CF05C1
:100B9000892B9091D005892B49F71092D1050895A2
:100BA000833F19F4191674F3DFCF893F39F480912C
:100BB000CF051816CCF61092CF05D6CF8A3F29F470
:100BC0008091CF0587FFD0CFF6CF8B3F39F480914E
:100BD000D00587FFC9CF1092D005C6CF8C3F29F42E
:100BE0008091D0051816BCF3BFCF843F31F48091BB
:100BF000CC058E7F8093CC05B7CF853F21F48091C3
:100C0000CC058D7FF7CF863F21F48091CC058B7F7B
:100C1000F1CF873F21F48091CC05877FEBCF883FD0
:100C200021F48091CC058F7EE5CF8D3F31F480910A
:100C30009F058E7F80939F0597CF8E3F21F48091F3
:100C40009F058D7FF7CF8F3F09F08ECF80919F0555
:100C50008B7FF0CF80919F0580FD1AC081FD14C06D
:100C600082FD14C08091D105882391F0883270F400
:100C700024E0829FC001112468E270E00E94432EAC
:100C8000862F672B29F0089582E0089584E0089567
:100C900081E0089580919F0580FD14C081FD14C0FE
:100CA00082FD16C08091D105882381F08C3380F4B9
:100CB00026E4829FC00111246CE370E00E94432E61
:100CC000862F089581E1089583E2089585E00895CF
:100CD00086E40895803F31F40E944A06819580930E
:100CE000CE050895813F19F40E944A06F8CF823F4D
:100CF00031F40E944A0681958093CD050895833F83
:100D000019F40E944A06F8CF893F29F40E942A0666
:100D10008093CF0508958A3F21F40E942A06819589
:100D2000F7CF8B3F31F40E942A0681958093D0053E
:100D300008958C3F19F40E942A06F8CF843F31F4BD
:100D40008091CC0581608093CC050895853F21F486
:100D50008091CC058260F7CF863F21F48091CC054D
:100D60008460F1CF873F21F48091CC058860EBCF80
:100D7000883F21F48091CC058061E5CF8D3F31F42F
:100D800080919F05816080939F0508958E3F21F497
:100D900080919F058260F7CF8F3FB9F780919F05C3
:100DA0008460F1CFCF92DF92EF92FF920F931F9367
:100DB0002FB7F89440919B0550919C0560919D053B
:100DC00070919E052FBF6A017B01EE24FF248C01E8
:100DD00030E020E0C016D106E206F30650F0481BD2
:100DE000590BCA011F910F91FF90EF90DF90CF90A8
:100DF000089541505109F3CF80919605882331F031
:100E00001092960510929505109294050895909170
:100E100018019923D1F09091B80597FF16C0E82FDB
:100E2000E695E695E695EE31E0F4F0E0E858FC4F03
:100E3000282F277081E090E001C0880F2A95EAF7FB
:100E400080959281892382830895EAE7F3E0919166
:100E5000891303C0DF0111971C9293E0E038F90772
:100E6000B1F70895909118019923C1F09091B805B8
:100E700097FF14C0E82FE695E695E695EE31F8F475
:100E8000F0E0E858FC4F877021E030E001C0220F0D
:100E90008A95EAF78281822B82830895AAE7B3E0DC
:100EA000EFEF90E02D91821751F0EF3F19F42111EF
:100EB00001C0E92F9F5F9630A9F7EF3F09F408952D
:100EC0000E2E000CFF0BE858FC4FE6CFE92FEE0F7B
:100ED000E90FEE0F8E0F982F977086958695869561
:100EE00025E0829FF0011124ED5AFA4F50E040E0D6
:100EF00080E0219130E0092E02C0369527950A94B2
:100F0000E2F721703327042E01C0220F0A94EAF77A
:100F1000822B4F5F5F4F4530510559F70895E92FF8
:100F2000EE0FE90FEE0F8E0F982F977041E001C082
:100F3000440F9A95EAF786958695869595E0899F60
:100F4000F0011124ED5AFA4F30E020E070E05191A9
:100F5000DF011197CB01022E02C0969587950A9466
:100F6000E2F7817081958527842385278C932F5FF5
:100F70003F4F2530310559F70895809152059091E2
:100F80002105981301C008958F5F8770FACF2091D3
:100F90000005309101052817390771F0909301057C
:100FA00080930005E091BA05F091BB05309721F0E0
:100FB0000084F185E02D099408952091FE0430917C
:100FC000FF042817390771F09093FF048093FE0403
:100FD000E091BA05F091BB05309721F00680F781CA
:100FE000E02D09940895E091BA05F091BB05309782
:100FF00021F00190F081E02D099480E00895FA013C
:10100000811101C0FB0109948033910538F5880FE7
:10101000991F880F991FFC01E45DFE4F52813381B7
:1010200080818370E181A82FB0E070E9879FC001C3
:1010300011248A549C4FE80FF92FF11DB497608357
:10104000FC01E50FF11DB4974083830F911DFC0156
:10105000B4972083AC54BC4F81E08C930895FF92E9
:101060000F931F93CF93DF93182F062FF42ED0E00A
:10107000C0E02F2D402F612FCE010E940408219641
:10108000C033D105B1F7DF91CF911F910F91FF9040
:1010900008950C942F080C9404080F931F9310E0EC
:1010A000F801EE0FFF1FE851FD4F9081905797FD1B
:1010B0009195000F111FF801E751FD4F008100527B
:1010C000110B2003F001219FF00D112408E310E023
:1010D000091B110997FD139540039001419F300DA5
:1010E0001124E20FF31F9F01220F331F2E0F3F1F0A
:1010F00037FF02C021583F4F220F232F221F330BEF
:10110000620F1F910F9108950F931F93522F10E0BC
:10111000F801EE0FFF1FE751FD4FA081A052BB0B5E
:101120009D015203F001539FF00D1124000F111F78
:10113000D801A851BD4F0C910057110B40039001ED
:10114000419F300D11242E0F3F1F37FF02C0215C3D
:101150003F4F96E0359527959A95E1F7620F1F91DD
:101160000F9108950F931F93522F10E0F801EE0F87
:10117000FF1FE751FD4FA081A052BB0B9D01520301
:10118000F001539FF00D1124000F111FD801A85139
:10119000BD4F0C910057110B40039001419F300D42
:1011A00011242E0F3F1F37FF02C021583F4F220F3F
:1011B000232F221F330B620F1F910F910895EF927F
:1011C0000F93972F23E0029FB00111247595679527
:1011D0006E0D792F0F91EF900895322F50E0FA01A4
:1011E000EE0FFF1FE751FD4F9081905297FD9195B3
:1011F000440F551FFA01E851FD4F2081231B330B8B
:10120000290F311D97FD3A95620F0895E42FF0E004
:10121000EE0FFF1FE751FD4F6081621B0895E42F21
:10122000F0E0EE0FFF1FE851FD4F6081621B089553
:10123000622F0895E42FF0E0EE0FFF1FE851FD4FFD
:10124000408134EE439F412D1124E82FF0E050E01F
:10125000445E5F4FDA01A21BB1099D01B7FF03C0D5
:1012600031952195310993E0220F331F9A95E1F7CB
:10127000AF01421B530B9A0157FD20E0582F259FC9
:10128000212D1124822F0895E42FF0E0EE0FFF1F8F
:10129000E851FD4F408134EE439F412D1124E72F4B
:1012A000F0E050E0445E5F4FDA01A21BB1099D01FE
:1012B000B7FF03C031952195310993E0220F331F09
:1012C0009A95E1F7AF01421B530B9A0157FD20E0BD
:1012D000279F212D1124722F0895FC019B01009757
:1012E00029F480E077FF2BC080E80895AC0197FFD8
:1012F00004C044275527481B590BB901640F751FBB
:1013000037FD10C0241B350BC901A5E0880F991FBC
:10131000AA95E1F70E94432E80E2861BF7FF0FC0DB
:1013200081950895CB0165E0880F991F6A95E1F7D3
:10133000BA01621B730B0E94432E80E6EECF089524
:10134000EF920F93CF93DF93D72FC82FC9010E19B8
:10135000BA010E946D09602F681B7D2F8C2FDF91D1
:10136000CF910F91EF9008950F93CF93DF93D72FE5
:10137000C82FC901BA010E946D09682F600F7D2F27
:101380008C2FDF91CF910F910895EF920F931F93C0
:10139000CF93DF93D62FC72F182FC9010E19010F36
:1013A000BA010E946D09081B202F219F212D1124B5
:1013B000822F6D2F7C2FDF91CF911F910F91EF9096
:1013C0000895EF920F931F93CF93DF93D62F172F8C
:1013D000C82FC9010E19070FBA010E946D09702F9D
:1013E000781B719F712D11246D2F8C2FDF91CF9160
:1013F0001F910F91EF9008950F931F93CF93DF9359
:10140000D62FC72F182FC901212F201B022FBA0159
:101410000E946D09982F990F990F891B800F282F13
:10142000219F212D1124822F6D2F7C2FDF91CF91B1
:101430001F910F9108950F931F93CF93DF93D62F92
:10144000172FC82FC901272F201B022FBA010E9476
:101450006D09982F990F990F782F791B700F719F35
:10146000712D11246D2F8C2FDF91CF911F910F9132
:101470000895E82F86FDE0952E2F2F7086FD2F5FB3
:10148000E695E695E695E670F0E0EC5DFE4F91811D
:10149000929F902D212D112492959F702295207F4F
:1014A000922B2081920F87FD919580E8890F0895F6
:1014B000AC018230910508F408959FEF413E8EE122
:1014C000580740F49A0195E0369527959A95E1F7EB
:1014D00098E0920F61E0E62FE90FFF27FF1F9F01C1
:1014E00035952795822F229FF001239FF00DF00D57
:1014F00011244E175F0738F49FEF920F961758F795
:101500008FEF860F08952F3FE9F361E0620FF6CF6A
:101510000F93CF93DF93D72FC82F47FD419588E3D3
:1015200090E0841B910947FD9395889FB001899FA6
:10153000700D700D1124229FC001239F900D900DFE
:101540001124860F971F0E94580A982F990F890F10
:10155000682F600F7D2F8C2FDF91CF910F91089511
:1015600030E020E0869F212D969F200D311D112413
:10157000C9010895AF92BF92CF92DF92FF920F936D
:101580001F93CF93DF93362F472FE82FF0E0E455DA
:10159000FF4F71110DC06491762F862FDF91CF918F
:1015A0001F910F91FF90DF90CF90BF90AF90089563
:1015B000C72FD0E02491F22E022F10E056E0659F55
:1015C000C0011124EFEFF0E0BF010E942F2E832F06
:1015D00090E0880F991F35E5369FD001379FB00DF9
:1015E00011248A1B9B0B982F990F980F6F01CC1A0F
:1015F000DD0AC09ED001C19EB00DD09EB00D112459
:101600008B2F949FA0011124452F55276F01C41AD9
:10161000D50AC09EA001C19E500DD09E500D112430
:101620005F01A91AB108AC9E6001AD9ED00CBC9EB2
:10163000D00C1124CD2CDD24EC19FD09E09FE00134
:10164000E19FD00DF09FD00D1124ED2F6230710578
:10165000A1F048F46115710569F06130710589F0F8
:10166000EB2F852F07C06430710571F088F066306C
:101670007105B1F76E2F722F91CFE22F2B2F8D2F87
:10168000F9CFE22F252FF6CFEB2F822F2D2FF2CF80
:101690002B2F8F2DE52FEECF9F92AF92BF92CF923F
:1016A000DF92EF92FF920F931F93CF93DF936C0122
:1016B00080911901C82FCC0FCC0FC80F15E01C0F5B
:1016C000B12E113310F030E3B32E609120066695F1
:1016D000669580911406909115060E94B00AF82E26
:1016E00080E48F0D0E94390A90E8A92EA80E8F2D54
:1016F0000E94390A20E8922E980ED0E0CB1580F097
:1017000081E0103308F080E0DF91CF911F910F91BD
:10171000FF90EF90DF90CF90BF90AF909F90089593
:10172000FE01E85BFC4F808190911A018923A1F0B2
:1017300060911D0670911E0680911F06EF2C0C2FE4
:10174000292D4A2DF60109950E94BA0A462F282F05
:10175000672FCE010E944B082196D0CF7F928F92A7
:101760009F92AF92BF92CF92DF92EF92FF920F9330
:101770001F93CF93DF935C0180911901C82FCC0F89
:10178000CC0FC80F15E01C0FF12E113310F030E311
:10179000F32E6091200666958091140690911506AF
:1017A0000E94B00A782ED0E0CF1590F081E010337F
:1017B00008F080E0DF91CF911F910F91FF90EF90A3
:1017C000DF90CF90BF90AF909F908F907F900895C3
:1017D000FE01E85BFC4F808190911A018923C9F1D9
:1017E000CE01880F991F8C569D4FFC01EC5AFF4F7C
:1017F0002081422F4057550B6A018B5A9F4FFC01A5
:101800008081282F2052330B4901449F9001459F2E
:10181000300D300D1124889CC001899C900D900DD5
:101820001124820F931F0E94580A082F60911D06F1
:1018300070911E0680911F06E72C9401A601F50108
:1018400009950E94BA0A462F282F672FCE010E94C1
:101850004B082196A9CFCF92DF92EF92FF920F9380
:101860001F93CF93DF937C0180911901C82FCC0F78
:10187000CC0FC80F15E01C0FD12E113310F030E340
:10188000D32E6091200666958091140690911506DE
:101890000E94B00AC82ED0E0CD1568F081E0103368
:1018A00008F080E0DF91CF911F910F91FF90EF90B2
:1018B000DF90CF900895FE01E85BFC4F808190910E
:1018C0001A01892311F1CE01880F991F8C569D4F63
:1018D000FC01EB5AFF4F20812052330B8C5A9F4F53
:1018E000FC0140814057550B60911D0670911E060A
:1018F00080911F060C2DF70109950E94BA0A462F08
:10190000282F672FCE010E944B082196C5CFDF926A
:10191000EF92FF920F931F93CF93DF937C018091FF
:101920001901C82FCC0FCC0FC80F15E01C0F012FC9
:10193000113308F000E3609120066695669580916A
:101940001406909115060E94B00AD82ED0E0C01758
:1019500060F081E0103308F080E0DF91CF911F91BB
:101960000F91FF90EF90DF900895FE01E85BFC4F30
:10197000808190911A01892391F060911D067091E8
:101980001E0680911F062D2D4C2FF70109950E94F0
:10199000BA0A462F282F672FCE010E944B082196A6
:1019A000D6CF9091B80592FF06C0282F2871283015
:1019B000F9F4877F846093FF06C0282F28712831AF
:1019C000F1F4877E84612091B90520FF06C0382F8D
:1019D00038713830D9F4877F816021FF06C0282F05
:1019E00028712831D1F4877E816194FD877E089526
:1019F000282F24712430F9F68B7F8860DCCF282FC4
:101A00002471243101F78B7E8861DDCF382F31714D
:101A1000313019F78E7F8860E0CF282F2171213176
:101A200021F78E7E8861E1CFCF93DF93972F70E00F
:101A300026E0929F600D711D1124FB0134E5839F08
:101A4000E00DF11D1124EE0FFF1FE455FE4FC5916F
:101A5000D491CE01C238D105B9F1E8F5C133D10531
:101A600009F499C050F5C932D10509F48DC0CA32C4
:101A7000D10509F497C0C11542E5D40708F047C164
:101A8000C11521E5D20708F0C2C1C83ED10508F052
:101A900020C1C03ED10568F5C83AD10508F089C01B
:101AA000C53AD10508F088C1C130D10511F12097A0
:101AB00009F443C02497E8F440C0C533D10509F4C4
:101AC0005CC0C933D105B9F62091B805237089F0FF
:101AD00080EE90E00EC0C33ED10591F168F4C03EA7
:101AE000D105F9F0C23ED10531F62091B80522FDAD
:101AF00020C0DF91CF910895C63ED10561F1C73E68
:101B0000D10581F1C43ED10509F0B5CF2091B905C9
:101B100021FFEFCF8091B80584FD0FC087EE90E0E4
:101B2000E8CF2091B80520FDA3C13091B90530FF61
:101B3000E0CF83EE90E024FFDCCF90E080E0D9CFCF
:101B40002091B80522FD97C13091B90530FDC0CF75
:101B500024FFCFCFF2CF2091B80523FFCACF24FDB9
:101B6000ECCFDCCF2091B80523FD88C13091B905B9
:101B700031FFEECF84EE90E0BCCF2091B80525FF79
:101B8000B8CF89E290E0B5CF2091B80525FFB1CF5D
:101B900085E390E0AECF2091B80526FFAACF8AE278
:101BA00090E0A7CF2091B80526FFA3CF81E390E076
:101BB000A0CFCF3BD10508F682EE94E4C83AD10518
:101BC00009F497CF89EE94E4C93AD10509F491CF8D
:101BD0008AEE94E4CA3AD10509F48BCF85EB94E4FC
:101BE000CB3AD10509F485CF86EB94E4CC3AD10504
:101BF00009F47FCF83EB94E4CB3BD10509F479CF93
:101C000084EB94E4CC3BD10509F473CF87EB94E4E7
:101C1000CD3AD10509F46DCF8CEC94E4C03BD105ED
:101C200009F467CF8DEC94E4CE3AD10509F461CF85
:101C300083E895E4CF3AD10509F45BCF8AE895E4CF
:101C4000C13BD10509F455CF82E995E4C23BD105EA
:101C500009F44FCF84E995E4C33BD10509F449CF9A
:101C600081E296E4C43BD10509F443CF83E296E4D4
:101C7000C53BD10509F43DCF84E296E4C63BD105CE
:101C800009F437CF85E296E4C73BD10509F431CF9B
:101C900086E296E4C83BD10509F42BCF87E296E4AF
:101CA000C93BD10509F425CF8FE694E4CD3BD1059E
:101CB00009F41FCF80E794E4CE3BD10509F419CF96
:101CC00080E094E4CA3BD10509F013CF8AE296E4A0
:101CD00010CFC11530E2D30760F4C11541E0D4073D
:101CE00008F007CFCE019065C03FD10508F001CFC5
:101CF00024CFC11580E4D80708F41FCFC11590E5A3
:101D0000D90708F068C0CE019F70906AF2CEC11565
:101D100026E5D20718F5C11535E5D30708F08DC0C3
:101D2000C11544E5D40708F083C09C2F969596957D
:101D3000AE0143705527C115D34508F46DC021E0AD
:101D400030E002C0220F331F4A95E2F740E2949F31
:101D5000C0011124822B932B9A68CBCEC1159AE532
:101D6000D90778F4C11529E5D20708F070C0C1156C
:101D700038E5D30708F4E1CE9C2F8827806F906A5E
:101D8000B8CEC1154BE5D40708F4D7CEC1158CE504
:101D9000D80708F469C0CE0190568115904208F02A
:101DA000CCCE8D2F8F710E94D10C90E0982F882778
:101DB00088279F718C2B49C081E890E4C53AD105F2
:101DC00009F497CE82E890E4C63AD10509F491CEA1
:101DD00083E890E48ECE9E01E4E036952795EA955F
:101DE000E1F723708C2F86958695837030E2839F70
:101DF000C0011124922BC37021E030E002C0220FF9
:101E0000331FCA95E2F7822B932B9C6872CE9C2FCE
:101E10008827816F906A6DCE21E030E002C0220FEA
:101E2000331F4A95E2F740E2949FC0011124EBCFA3
:101E30009C2F8827846F906A5CCE8C2F0E94D10CD7
:101E400090E0982F882788279F71906252CE8C2F20
:101E50008F700E94D10C34E0D695C7953A95E1F782
:101E6000CF709C2F906945CECE019927906641CEC8
:101E700089E390E03ECE82EE90E03BCE86EE90E0AD
:101E800038CEBF92CF92DF92EF92FF920F931F93C3
:101E9000CF93DF938C01C0908A05D0908B05E090A2
:101EA0008C05F0908D058091970590919805A091F3
:101EB0009905B0919A05C82AD92AEA2AFB2ACFE1C6
:101EC000D0E0BC2ED701C6010C2E04C0B695A79554
:101ED000979587950A94D2F780FD0EC0219788F7D1
:101EE000B12C8B2DDF91CF911F910F91FF90EF902F
:101EF000DF90CF90BF900895B8018C2F0E94140DF1
:101F0000019761F3EECFCF93DF93EC010E94410F75
:101F1000BE01DF91CF910C94140D0E94830F292FE5
:101F20002F7092959F7092509E3078F4E92FF0E0D8
:101F3000E854FD4C0C94572E803F19F020F4883E55
:101F400020F481E00895843FE1F380E00895883E25
:101F5000C0F3813FD1F7F5CF822F86958695869580
:101F60000895CF93DF939C013A9521153F4168F581
:101F7000EC01CC27D170DC01AA27B270AC01442758
:101F800054709C012227387094FF11C080E1CD2B42
:101F900009F480E0AB2B09F08062452B09F08064E6
:101FA000232B09F08068FB01DF91CF91099481E038
:101FB000CD2B09F480E0AB2B09F08260452B09F0B2
:101FC0008460232B81F38860EECFDF91CF91089559
:101FD00040E060E080E00E94490881E08093E505F0
:101FE000089527982F98089526982E980895259853
:101FF0002D98089556985E980895279A2F9A0895D7
:10200000269A2E9A0895259A2D9A0895CF92DF92B6
:10201000EF92FF92CF936B017C01C701AA27BB27E8
:10202000C0E10097A105B10519F4D701CB01C0E0CB
:10203000492F5A2F6B2F77274115510561057105DF
:1020400019F0C85FDB01CA01AC01BD01E4E076957F
:10205000679557954795EA95D1F741155105610563
:10206000710519F0CC5FDB01CA01AC01BD0132E0A2
:1020700076956795579547953A95D1F7411551054E
:102080006105710519F0CE5FDB01CA01B695A79510
:1020900097958795892B8A2B8B2B09F0CF5F0E9410
:1020A000FA0F0E94F70F0E94F40F0E94F10FC15027
:1020B000C73040F4EC2FF0E0EA53FD4C0C94572E5F
:1020C0000E940310C701B601CF91FF90EF90DF90FF
:1020D000CF9008950E9403100E940010F3CF0E9439
:1020E00003100E94FD0FEECF0E9403100E9400100B
:1020F000F8CF84B1807F84B985B1807F85B98AB1FA
:10210000837F8AB98BB1837F8BB93E9846980895B7
:1021100080B38C7080BB81B3836F81BB0895CF93F4
:1021200084E090E00E94A42EC82F81E290E00E94FB
:10213000A42E982F8C2FCF9108950F931F93CF9398
:10214000DF9300D00F92CDB7DEB78C010E94A005BF
:10215000823011F0843021F584E089831B830A8367
:1021600082E08093E9008FEF9091E800815095FD27
:1021700006C095ED9A95F1F700008111F5CF809199
:10218000E80085FF0DC050E040E063E070E0CE0164
:1021900001960E9466048091E8008E778093E800A3
:1021A0000F900F900F90DF91CF911F910F91089595
:1021B000CF93DF9300D00F92CDB7DEB720910A0600
:1021C000243031F523E02983805891099B838A8349
:1021D00082E08093E9008FEF9091E800815095FDB7
:1021E00006C095ED9A95F1F700008111F5CF809129
:1021F000E80085FF0DC050E040E063E070E0CE01F4
:1022000001960E9466048091E8008E778093E80032
:102210000F900F900F90DF91CF910895CF93DF93A0
:10222000EC010E94A005823011F08430F9F482E0C4
:102230008093E9008FEF9091E800815095FD06C0F2
:1022400095ED9A95F1F700008111F5CF8091E800A6
:1022500085FF0CC050E040E066E070E0CE010E94D7
:1022600066048091E8008E778093E800DF91CF913B
:102270000895CF93DF93EC010E94A005823011F006
:102280008430B9F5809118018823B1F18091B805A7
:1022900087FF32C060E282E08093E9008FEF909187
:1022A000E800815095FD06C095ED9A95F1F7000084
:1022B0008111F5CF8091E80085FF1BC08091180146
:1022C00070E050E040E0811104C050E040E068E080
:1022D00070E0CE010E9466048091E8008E778093C2
:1022E000E80080E2FE01A8EEB5E001900D928A952B
:1022F000E1F7DF91CF91089568E081E0CDCFEF92D3
:10230000FF920F931F93CF93DF930E94FA0F0E94C7
:10231000F70F0E94F40F0E94F10F88E8E82EF12CCD
:102320008FEF90E0F701918380830AE810E0F801D5
:1023300091838083CCE8D0E0998388830E94031046
:10234000FFEF20E782E0F15020408040E1F700C03D
:1023500000000E9400109FEFE0E7F2E09150E040A3
:10236000F040E1F700C000000E94FD0F2FEF80E772
:1023700092E0215080409040E1F700C000000E94B0
:10238000F70FEFEFF0E722E0E150F0402040E1F7F7
:1023900000C000000E94F40F8FEF90E7E2E0815050
:1023A0009040E040E1F700C000000E94F10F8091F2
:1023B000A6058770FFEF8F9FC00111249595879523
:1023C000959587959927F70191838083F8019183EB
:1023D0008083998388830E94FA0F0E94F70F0E94DE
:1023E000F40FDF91CF911F910F91FF90EF900C941C
:1023F000F10F6091A2058CE090E00C94C82E6FEE76
:102400007EEF90E080E00E94E62E60E082E090E0C7
:102410000E94C82E60E083E090E00E94C82E1092D7
:102420009705109298051092990510929A0560E010
:1024300084E090E00E94C82E60E081E290E00E947B
:10244000C82E60E085E090E00E94C82E60E086E043
:1024500090E00E94C82E6FEF87E090E00E94C82EA7
:1024600040E050E0BA0188E090E00E94DA2E60E09F
:102470008DE090E00E94C82E40E050E0BA0188E173
:1024800090E00E94DA2E60E087E190E00E94C82E82
:1024900040E050E0BA018CE190E00E94DA2E60E06A
:1024A00080E290E00E94C82E1092A6051092A70527
:1024B0001092A8051092A90584E080618093A6057A
:1024C0004091A6055091A7056091A8057091A905B6
:1024D0008FE090E00E94DA2E40E050E0BA0183E104
:1024E00090E00C94DA2E0F931F93CF93DF93082F75
:1024F000000FEB0114E21093A003E1EAF3E0DE0128
:102500008D91819383E0E13BF807D1F724E630E039
:1025100041E150E060EA73E0802F0E94042E105FDA
:102520006096143B41F7DF91CF911F910F91089571
:102530008091B403882329F066EB73E084E70E945E
:1025400073121092B4038091B503882329F066E4D6
:1025500074E087E70E9473121092B5030895E0EAD1
:10256000F3E06083418324E630E042E050E0BF01C5
:10257000880F0C94042E0F931F93CF93DF93082F93
:10258000E62FF0E0E650FB4F8081882379F082E16E
:10259000689FE0011124CA52DB4F10E04991612F7E
:1025A000802F0E94AF121F5F1231C1F7DF91CF91D0
:1025B0001F910F910895CF93DF93C82F4BE06DEFDC
:1025C0000E94AF1240E06AE08C2F0E94AF128FE3AE
:1025D0009CE90197F1F700C0000040E060E08C2F1B
:1025E0000E94AF1240E061E08C2F0E94AF1240E0E9
:1025F00066E08C2F0E94AF1240E06DEF8C2F0E949E
:10260000AF12D0E040E06D2F8C2F0E94AF12DF5F41
:10261000D231C1F740E06D2F8C2F0E94AF12DF5FE7
:10262000D432C1F740E06D2F8C2F0E94AF12DF5FD4
:10263000D43BC1F74BE06DEF8C2F0E94AF1241E00D
:102640006AE08C2F0E94AF1240E06DEF8C2FDF917B
:10265000CF910C94AF126F927F928F929F92AF9214
:10266000BF92CF92DF92EF92FF920F931F93CF937F
:10267000DF930E944F2D84E70E94DB1287E70E94C0
:10268000DB126CE2E62E61E0F62ED12CC12C72E159
:10269000772EE8E08E2E912CAA24A394B12C6624E8
:1026A0006394F701418150E0CA018497028104528A
:1026B000110BC381C452DD0BF601EE0FFF1FEE0FAD
:1026C000FF1FE45DFE4F2081237030E0FC0197FD89
:1026D000379643E0F595E7954A95E1F7729EA0019C
:1026E000739E500D11244A525B4FE40FF52FF11DDC
:1026F000B4010E94432EA50101C0440F8A95EAF758
:102700008081842B8083F80117FD379693E0F5953F
:10271000E7959A95E1F7729EC001739E900D112482
:102720008A529B4FE80FF92FF11DC801B4010E9496
:10273000432EA50101C0440F8A95EAF78081842BBE
:102740008083FE01D7FD379683E0F595E7958A955E
:10275000E1F7729EC001739E900D11248A529B4F27
:10276000E80FF92FF11DCE01B4010E94432EA501FF
:1027700001C0440F8A95EAF78081842B808326501C
:102780003B4FF9016082FFEFCF1ADF0A84E0E80EC9
:10279000F11CE0E3CE16D10409F083CF60E084E7BA
:1027A0000E94BB1261E087E7DF91CF911F910F91EB
:1027B000FF90EF90DF90CF90BF90AF909F908F9061
:1027C0007F906F900C94BB1245E050E06CE170E09C
:1027D0008CE196E00C94B82E80911C06982F96956B
:1027E00096959F5F9F738370953148F4990F990F69
:1027F000892B80931C0610920B010C94E4138460C7
:10280000F8CF80911C06845080931C06982F9C7FE3
:1028100021F48370806580931C0610920B010C9448
:10282000E413ECE1F6E08181885F81830C94E4138A
:10283000ECE1F6E08181885081830C94E413ECE1B3
:10284000F6E0228130E1230F08F42FEF22830C946D
:10285000E413ECE1F6E0228130E1231B08F420E0F0
:1028600022830C94E413ECE1F6E0238130E1230FA2
:1028700008F42FEF23830C94E413ECE1F6E02381BA
:1028800030E1231B08F420E023830C94E413ECE1F3
:10289000F6E0248130E1230F08F42FEF24830C9419
:1028A000E413ECE1F6E0248130E1231B08F420E09E
:1028B00024830C94E41390911C0696959695981792
:1028C00020F0961710F40C94EC13982F990F990F91
:1028D00080911C068370892B80931C0610920B013B
:1028E0000C94E413ECE1F6E08DE2808380911C010E
:1028F00090911D01A0911E0181839283A3838FE794
:1029000084830C94E4130E942B1390E080E00E94D7
:10291000B22E8F3E9E4F21F00E94FF110E94721432
:1029200045E050E06CE170E08CE196E00E94942E6E
:1029300080911C068C7F11F40C947214089580E22F
:1029400090E090930D0180930C0180919F03811181
:102950000EC00E944F2D81E080939F032FEF83EDE7
:1029600090E3215080409040E1F700C0000064E611
:1029700070E080E40E94552D90930D0180930C012E
:10298000892B09F04EC064E670E080E00E94B12D12
:1029900090930D0180930C01892B09F042C064E6ED
:1029A00070E080E00E94B12D90930D0180930C01A6
:1029B000892BB9F564E670E08FE30E94B12D909306
:1029C0000D0180930C01892B61F50E942B2E64E68A
:1029D00070E080E40E94552D90930D0180930C01CE
:1029E000892BF9F464E670E08CE00E94B12D90939D
:1029F0000D0180930C01892BA1F464E670E080E066
:102A00000E94B12D90930D0180930C01892B49F404
:102A100064E670E08FE30E94B12D90930D018093E6
:102A20000C010E942B2E80910C010895CF93C82F8A
:102A3000873070F580910C0190910D01892B89F5FB
:102A400064E670E080E40E94552D90930D01809320
:102A50000C01892BD1F464E670E082E10E94B12D73
:102A600090930D0180930C01892B79F481E090E023
:102A700001C0880FCA95EAF764E670E080950E946D
:102A8000B12D90930D0180930C01CF910C942B2EBE
:102A90008A30B9F040F4883071F0893079F0209AAA
:102AA0002898CF9108958C3091F070F08D30B9F75F
:102AB0003E9A4698F6CF219A2998F3CF229A2A98DF
:102AC000F0CF239A2B98EDCF529A5A98EACF539A87
:102AD0005B98E7CFCF93873008F040C080910C011E
:102AE00090910D01C0E0892B71F464E670E080E400
:102AF0000E94552D90930D0180930C01892B31F08C
:102B0000C0E00E942B2E8C2FCF91089564E670E0D8
:102B100083E10E94B12D90930D0180930C01892BCC
:102B200079F764E670E081E40E94552D90930D01E1
:102B300080930C01892B21F784E690E00E94E02D20
:102B400097FF05C090930D0180930C01D9CFC82F3A
:102B5000C09510920D0110920C01D3CFCFB18FB15F
:102B6000869586958C73C3708C2BC82FC095CBCF60
:102B700078941F921FB61F9211248F939F93AF9347
:102B8000BF9380919B0590919C05A0919D05B0916C
:102B90009E050196A11DB11D80939B0590939C05F8
:102BA000A0939D05B0939E05BF91AF919F918F918A
:102BB0001F901FBE1F9018952FB7F89480919B050A
:102BC00090919C05A0919D05B0919E052FBF089501
:102BD000E091BA05F091BB05309749F082E080930F
:102BE000CB050480F581E02D8BEC95E009950E94E2
:102BF000DC159093D3058093D2050895CF93DF938E
:102C00000E94DC15C0919405D09195058C179D0705
:102C100040F00E94DC1521E0C817D90749F420E0F4
:102C200007C00E94DC158C1B9D0B21E00197B9F3B6
:102C3000822FDF91CF910895809193059091920515
:102C4000892B90919105892B80937803809196052B
:102C50008823E9F00E94FE1581110E94FC068091F4
:102C6000780390919605892B8093780380911801C1
:102C7000882341F18091B80587FF24C08EE1EAE7FF
:102C8000F3E090E0815000F591110E94FC06E09184
:102C9000BA05F091BB053097E1F0809118018823C7
:102CA00059F08091B80587FF07C080917803809321
:102CB000790385E0809378030280F381E02D88E733
:102CC00093E0099486E0DBCF21912223D9F29F5F24
:102CD000D9CF089510929205109291050E941C166A
:102CE00086E0EBECF5E0DF011D928A95E9F71092A2
:102CF000D10510929F050E94E81590E080E00E94A7
:102D0000DD0790E080E00C94C7070E9406106093F6
:102D10008A0570938B0580938C0590938D050C9498
:102D20006A160F931F9341E050E060E070E004C02A
:102D3000440F551F661F771F8A95D2F7CB01BA0142
:102D4000609570958095909500918A0510918B05FE
:102D500020918C0530918D0560237123822393236C
:102D60001F910F910C948516909190058095892361
:102D700080939005282F277091F4282F082E000C9F
:102D8000330B9217130659F08595859585950E940A
:102D900091161092900510928F0510928E0508954D
:102DA0000F931F9341E050E060E070E004C0440FD7
:102DB000551F661F771F8A95D2F780918A059091DB
:102DC0008B05A0918C05B0918D058A019B01082B84
:102DD000192B2A2B3B2BC901B8011F910F910C9481
:102DE0008516609397057093980580939905909345
:102DF0009A050C946A161092930580911801EAE7DF
:102E0000F3E0882359F08091B80587FF07C08EE171
:102E1000DF011D928A95E9F70C946A1686E0F8CFD7
:102E20001F93CF93DF93CDB7DEB7AA970FB6F89471
:102E3000DEBF0FBECDBF8CE096E02091F100FC011B
:102E40002193CF01F6E084319F07B9F780910D06F9
:102E5000833009F46FC0B8F4813009F446C0823081
:102E600009F4B0C08091E80083FF87C280910C060E
:102E700090910D069A3008F080C2E92FF0E0E353FC
:102E8000FD4C0C94572E8A3009F48BC08B3009F41A
:102E90006EC0893039F780910C06813219F7809124
:102EA0001006909111060297E8F68091E800877F5E
:102EB0008093E8008091E80082FF37C09091F30092
:102EC0008091F200029729F48091F1008B7F81308C
:102ED00021F48091F1008093E7058091E8008B77E1
:102EE0008093E8000E949004BDCF80910C06813A47
:102EF00009F0B8CF8091E800877F8093E800809147
:102F0000100690911106892B61F460E288EE95E03D
:102F100070E00E9442058091E8008B778093E80082
:102F2000A1CF60E090E080E0F3CF80910A068111AC
:102F3000C1CF98CF80910C06813A09F093CF809150
:102F4000100690911106892B09F08CCF8091E80032
:102F5000877F8093E8008091E80080FFFCCF80911C
:102F600018018093F1008091E8008E77B9CF8091AD
:102F70000C06813209F076CF8091100690911106EF
:102F8000892B09F06FCF8091E800877F8093E8005C
:102F90000E94900480910E06809318010E94FB16F7
:102FA00061CF80910C06813209F05CCF8091E800FE
:102FB000877F8093E8000E94900480910F068093A1
:102FC000E60550CF80910C06813A09F04BCF8091F5
:102FD000E800877F8093E8008091E80080FFFCCFC5
:102FE0008091E605BECF803899F0823809F0C5C1DE
:102FF000809110068F70873008F0BFC18093E90080
:103000008091EB0085FB882780F91092E90006C0CB
:103010008091080690910906911182609091E800D4
:10302000977F9093E8008093F1001092F1008091D7
:10303000E8008E779EC1882309F48CC1823009F0A4
:103040009CC180910E0681118FC1809110068F70F6
:103050002FEF280F263008F090C18093E9002091CF
:10306000EB0020FF81C1933031F48091EB0080624E
:103070008093EB0079C19091EB0090619093EB000D
:1030800021E030E001C0220F8A95EAF72093EA00A0
:103090001092EA008091EB008860EACF81116DC147
:1030A00010910E061F778091E3008078812B80932A
:1030B000E3008091E800877F8093E8000E949004FD
:1030C0008091E80080FFFCCF8091E30080688093CE
:1030D000E30082E0111183E080930A064EC180581C
:1030E000823008F04AC180910E0690910F068C3D07
:1030F00023E09207A1F583E08A838AE289834FB7B0
:10310000F894DE01139620E03EE051E2E32FF0E078
:1031100050935700E49120FF03C0E295EF703F5FAA
:10312000EF708E2F90E0EA30C0F0C7968D939D939C
:103130002F5F243159F74FBF8091E800877F80933C
:10314000E8006AE270E0CE0101960E94420580919B
:10315000E8008B778093E80010C1C096E7CF4091DC
:10316000100650911106292F33272330310509F419
:1031700045C078F52130310509F47BC08BE390E040
:10318000E4E7F7E02230310509F0F7C02091E800CC
:10319000277F2093E80020911206309113068217B2
:1031A000930708F49C0140E02115310509F070C037
:1031B00041116EC08091E80082FDC9CF80910A065E
:1031C000882329F2853019F28091E80083FFF2CF3D
:1031D000BECF2132310509F440C02232310509F059
:1031E000CCC04115510509F44EC04130510509F0DC
:1031F000C4C080EC90E0E4E7F6E0C8CF99278130C6
:103200009105D9F0009771F082309105F1F00397A4
:1032100009F0B3C0E1ECF7E0E4918E2F90E0E1EC2F
:10322000F7E007C0E9EEF7E0E4918E2F90E0E9EED9
:10323000F7E0009709F4A1C0A9CFEFEDF7E0E49122
:103240008E2F90E0EFEDF7E0F4CFE7ECF7E0E491BC
:103250008E2F90E0E7ECF7E0ECCF4115510571F0CF
:103260004130510509F089C089E090E0EFE9F7E0CD
:103270008DCF82E190E0EFEAF7E088CF89E090E03F
:10328000E6E8F7E083CF80E490E0E4E3F7E07ECF88
:1032900080910A06882309F45ACF853009F457CF64
:1032A0008091E80083FD53CF8091E80082FD82CFBA
:1032B0008091E80080FF78CF9091F3008091F20038
:1032C0002115310519F08830910550F041E008973B
:1032D00009F040E08091E8008E778093E80064CFA9
:1032E00044914093F1003196215031090196E8CF85
:1032F000803809F042C08091E800877F8093E80021
:1033000080910B068093F10092CE811136C010910E
:103310000E06123090F58091E800877F8093E800D8
:1033200010930B060E949004112311F084E005C055
:103330008091E30087FDFACF81E080930A0642E0A6
:1033400061EC81E00E94AF0442E261EC82E00E9405
:10335000AF0413C080910E06813079F481E0933080
:1033600009F080E0809309061092E9008091E8005E
:10337000877F8093E8000E9490048091E80083FF9B
:103380000AC08091E800877F8093E8008091EB007D
:1033900080628093EB00AA960FB6F894DEBF0FBE52
:1033A000CDBFDF91CF911F9108951F920F920FB65D
:1033B0000F9211242F933F934F935F936F937F93BB
:1033C0008F939F93AF93BF93CF93DF93EF93FF932D
:1033D000D091E900DF708091EC00C82FC17080FDB2
:1033E000C0E81092E9008091F000877F8093F000A0
:1033F00078940E9410171092E9008091F000886084
:103400008093F000CD2BCF70C093E900FF91EF9136
:10341000DF91CF91BF91AF919F918F917F916F91EC
:103420005F914F913F912F910F900FBE0F901F9082
:1034300018951F920F920FB60F9211242F933F935E
:103440004F935F936F937F938F939F93AF93BF93AC
:10345000EF93FF938091E10082FF09C08091E20029
:1034600082FF05C08091E1008B7F8093E100809115
:10347000DA0080FF24C08091D80080FF20C08091B6
:10348000DA008E7F8093DA008091D90080FFA1C09E
:1034900080E189BD82E189BD09B400FEFDCF81E0F4
:1034A00080930A068091E405811109C00E941604E8
:1034B0000E94E1048091E20084608093E2008091A8
:1034C000E10080FF17C08091E20080FF13C080916F
:1034D000E2008E7F8093E2008091E2008061809321
:1034E000E2008091D80080628093D80019BC85E00A
:1034F00080930A068091E10084FF2FC08091E20052
:1035000084FF2BC080E189BD82E189BD89B5982FF8
:10351000917080FFFBCF8091D8008F7D8093D80081
:103520008091E1008F7E8093E1008091E2008F7EA8
:103530008093E2008091E20081608093E2008091BC
:103540000B06882309F44BC084E080930A060E948E
:10355000FB160E94F3071092E5058091E10083FFBE
:1035600027C08091E20083FF23C08091E100877F24
:103570008093E10082E080930A0610920B0680910E
:10358000E1008E7F8093E1008091E2008E7F809346
:10359000E2008091E20080618093E20042E060E01E
:1035A00080E00E94AF048091F00088608093F0007A
:1035B000FF91EF91BF91AF919F918F917F916F910B
:1035C0005F914F913F912F910F900FBE0F901F90E1
:1035D000189519BC10920A061092E40570CF8091DC
:1035E000E30087FD93E090930A06B1CF882341F072
:1035F0008095909192058923809392050C941C16D6
:103600000895882339F090919205982B9093920514
:103610000C941C160895882341F080959091930591
:103620008923809393050C941C160895882339F000
:1036300090919305982B909393050C941C160895E4
:10364000882309F459C0823871F40E94F30781FF7E
:1036500053C089E30E9432070E941C1689E30E942E
:1036600007070C941C16833859F40E94F30780FF57
:1036700043C083E50E9432070E941C1683E5EFCF0A
:10368000843859F40E94F30782FF36C087E40E9411
:1036900032070E941C1687E4E2CF9CEF980F913A04
:1036A000F0F290E2980F983088F4877021E030E0D3
:1036B000A90102C0440F551F8A95E2F7CA018095FF
:1036C00090919305892380939305CBCF9BE5980F29
:1036D000933020F490E080E00C94DD0798E5980F9B
:1036E000973120F490E080E00C94C707803F20F0F1
:1036F0000E94AB050C94E8150895CF93DF93EC017D
:103700000E94201B66EF7AE1CE01DF91CF910C94ED
:10371000B10F882309F408C18238B9F40E94F30775
:1037200081FD02C189E30E9432070E941C162FEF1F
:1037300081EE94E0215080409040E1F700C000000D
:1037400089E30E9407070C941C168338A1F40E9499
:10375000F30780FDE9C083E50E9432070E941C1632
:103760002FEF81EE94E0215080409040E1F700C0BF
:10377000000083E5E6CF8438A1F40E94F30782FDC0
:10378000D3C087E40E9432070E941C162FEF81EEFF
:1037900094E0215080409040E1F700C0000087E4B1
:1037A000D0CF9CEF980F913A18F40E943207CBCFFC
:1037B00090E2980F983068F4877021E030E001C003
:1037C000220F8A95EAF780919305822B80939305C7
:1037D000BACF9BE5980F933070F4853A31F0863A72
:1037E00039F083E890E00C94DD0781E890E0FBCFAE
:1037F00082E890E0F8CF98E5980F973108F08EC0F6
:10380000883A09F446C0893A09F446C08A3A09F46C
:1038100046C08B3A09F446C08C3A09F446C08B3B4B
:1038200009F446C08C3B09F446C08D3A09F446C001
:10383000803B09F446C08E3A09F446C08F3A09F439
:1038400046C0813B09F446C0823B09F446C0833B35
:1038500009F446C0843B09F446C0853B09F446C0E0
:10386000863B09F446C0873B09F446C0883B09F40F
:1038700046C0893B09F446C08D3B09F446C08E3BE7
:1038800009F446C08A3B09F446C090E080E00C94FD
:10389000C70782EE90E0FBCF89EE90E0F8CF8AEE8A
:1038A00090E0F5CF85EB90E0F2CF86EB90E0EFCFA4
:1038B00083EB90E0ECCF84EB90E0E9CF87EB90E0F6
:1038C000E6CF8CEC90E0E3CF8DEC90E0E0CF83E8A6
:1038D00091E0DDCF8AE891E0DACF82E991E0D7CFBD
:1038E00084E991E0D4CF81E292E0D1CF83E292E00B
:1038F000CECF84E292E0CBCF85E292E0C8CF86E2E1
:1039000092E0C5CF87E292E0C2CF8FE690E0BFCFD2
:1039100080E790E0BCCF8AE292E0B9CF803F20F010
:103920000E946A060C94E8150895CF93C82F0E9450
:10393000891BC93349F42FEF87EE93E02150804073
:103940009040E1F700C000008C2FCF910C94201B19
:10395000CF93C82F61E07BE10E94B10F8C2FCF91F4
:103960000C94891BCF93DF93C0911105D091120560
:103970002097E1F080911305909114050E94D206E2
:103980002091090130910A012817390790F4D2607B
:10399000CE010E94A81CCE010E947D1B109214052E
:1039A000109213051092120510921105DF91CF911C
:1039B00008958C2F0E94951CF1CF0F931F93CF93E6
:1039C000DF93C62FD42F022FFC0182818823A1F020
:1039D000609315050E94DC159093FD048093FC0410
:1039E000C77081E001C0880FCA95EAF7DF91CF91D7
:1039F0001F910F910C94161B10911505161335C0CD
:103A00008091FC049091FD040E94D206813A9105B8
:103A100060F5C0E2CD0F1D17B9F080E2810F88304C
:103A200040F4177081E001C0880F1A95EAF70E94F0
:103A30000B1BC83048F481E09D2F977001C0880FA0
:103A40009A95EAF70E94161B802F0E94951CC83099
:103A500098F4D77081E001C0880FDA95EAF7DF911A
:103A6000CF911F910F910C940B1BC77081E001C087
:103A7000880FCA95EAF7F3CFDF91CF911F910F918D
:103A800008954F925F926F927F928F929F92AF9222
:103A9000BF92CF92DF92EF92FF920F931F93CF933B
:103AA000DF93CDB7DEB728970FB6F894DEBF0FBE11
:103AB000CDBF6C01FC0183819481892B39F0108189
:103AC000B180812F8B218F3F09F08DC728960FB6CB
:103AD000F894DEBF0FBECDBFDF91CF911F910F9144
:103AE000FF90EF90DF90CF90BF90AF909F908F901E
:103AF0007F906F905F904F9008950E94410F082F24
:103B0000682F89819A810E948F07E12FF0E026E0DB
:103B1000B29EE00DF11D112434E5039FE00DF11D6F
:103B20001124EE0FFF1FE455FE4F05911491F6018D
:103B300082810930FDE51F0759F10A302DE5120792
:103B400009F4FEC0023C3CE5130709F01FC18823BD
:103B500009F4BCCF90911A018091A6059F3F09F00E
:103B60000EC110921A018F7E8093A60540E060E09E
:103B700080E00E9449084091A6055091A7056091F8
:103B8000A8057091A9058FE090E00E94DA2E9ECFE3
:103B9000882309F44EC08091A60591E0980F977094
:103BA000887F953008F4892B8093A6058091A6051F
:103BB0008770EFEF8E9FC00111249595879595959D
:103BC00087959927909389008093880090938B0024
:103BD00080938A0090938D0080938C004091A6057D
:103BE0005091A7056091A8057091A9058FE090E01C
:103BF0000E94DA2E60918A0570918B0580918C0568
:103C000090918D050E940610F6018281882389F02B
:103C1000033EFCE51F0709F4DAC008F0C4C0013E0A
:103C20003CE5130709F4CCC0023E8CE5180709F403
:103C3000CCC017FF52C0F6018281882309F464C00A
:103C40008091930580931005109293058091A205B1
:103C5000813009F4C4C0882309F4BDC0823009F45E
:103C6000C7C0843009F4CBC08FE39CE90197F1F71A
:103C700000C000004801E89497F84CE0A42EB12C55
:103C800094010A2C02C0369527950A94E2F72F700A
:103C900087E290E031F0822F90E02A3008F0B4C043
:103CA0004D960E94951C94E0A91AB108ECEFAE164F
:103CB000EFEFBE0629F78091A205813009F4AAC072
:103CC000882309F4A3C0823009F4A0C0843009F429
:103CD000A5C08091100580939305F6018281882309
:103CE00099F00731FCE51F0709F400C108F0B5C0E1
:103CF0000933110508F094C00D32110508F094C085
:103D00000B32110509F490C00E94B21C033F2CE550
:103D1000120709F49AC108F083C1083D8CE5180721
:103D200009F48FC1093D9CE5190709F49AC1073DC3
:103D3000ECE51E0709F0E3C026E241EE61EE7DC12D
:103D4000882309F476CF9091A605892F877F93FF6A
:103D500088608093A60583FF05C040E060E080E0B6
:103D60000E9449084091A6055091A7056091A805B9
:103D70007091A9058FE090E00E94DA2E45CF9FEF69
:103D800090931A0180618093A605F5CE0B30FDE576
:103D90001F0709F039CF882309F498CE80911C06BB
:103DA0008370846047C2043E9CE5190791F084E06B
:103DB000053EECE51E0709F03CCF8093A20502C04A
:103DC0001092A2050E94F91134CF81E0F6CF82E073
:103DD000F4CF83E0F2CF82EE0E94891B45CF88E1C9
:103DE00093E00E94A81C88E193E00E947D1B3CCFD9
:103DF00082EE0E94891B87E50E94951C35CF86EED6
:103E00000E94951C88E1F8CF06974BCF82EE0E9466
:103E1000201B5FCF8CE20E94951C5BCF88E2FBCF1A
:103E20000436110509F070CF0E94B21C8091080180
:103E3000882309F464C080919305811160C00E94B9
:103E4000DC159093140580931305109312050093CD
:103E5000110582E00E94B41639CE0A313CE5130701
:103E600009F4D6C0A0F508319CE5190709F494C0FF
:103E70000931ECE51E0709F047CF80910A018F93C5
:103E8000809109018F938FE191E09F938F931F920F
:103E900088E08F93FF92EF920E9417300FB6F8944C
:103EA000DEBF0FBECDBFF7012081222341F15701B4
:103EB000FFEFAF1ABF0A213009F074C0F701F1809B
:103EC0008F2D0E94891B8F2D0E94201B71C00B31EA
:103ED000FCE51F0709F4A0C00C312CE5120709F01E
:103EE00013CF109208010E94B21C09C080910901F1
:103EF00090910A01059690930A0180930901F601B9
:103F00002281222309F44AC2109215050230FCE5F1
:103F10001F0708F47CC106313CE5130730F0C801E7
:103F20008A5F9C45079708F072C10E948F1090939A
:103F3000B9058093B8050F308CE5180709F448C11E
:103F400008F0C9C00830ECE51E0709F42BC108F0E1
:103F50009CC004302CE5120709F418C108F084C095
:103F600002308CE5180709F40DC18091B805826014
:103F700003301C4509F49BC06091B8051091B90548
:103F800084E090E00E94C82E612F81E290E00E94C0
:103F9000C82E0E94FB169ACD8091090190910A01CA
:103FA0000597A9CF223049F4F70181810E94891B2E
:103FB0007501FFEFEF1AFF0A76CF233019F4F701EE
:103FC000818182CF30E0F901EC50FA4F9490F901F1
:103FD000EC58FA4FA490F901EC50FB4FB490AA2092
:103FE00019F081EE0E94891BBB2019F086EE0E9419
:103FF000891B892D0E94951CBB2019F086EE0E941A
:10400000201BAA2019F081EE0E94201B5701D0CF5F
:1040100080910801811165CF81E0809308016FCF05
:10402000053FFCE51F07C9F0A0F027E245EE66EE6C
:10403000063F3CE5130709F062CFC6010E94DD1C74
:1040400045CD27E245EE65EEF8CF26E241EE60EE83
:10405000F4CF27E245EE64EEF0CF26E241EE62EEC9
:10406000ECCF28E241E0EFCF8091B80580610630C7
:10407000ECE51E07E1F08091B805886007301C452B
:10408000B0F08091B805806212C00B302CE51207A9
:1040900009F496C078F409308CE5180709F486C055
:1040A0008091B8058C600A301C4509F065CF80937B
:1040B000B80562CF8091B8058B7F0D30ECE51E0707
:1040C000B1F38091B8058D7F0E301C4580F380914F
:1040D000B805877FECCF0A3F2CE5120709F45AC0D8
:1040E00048F502318CE5180709F47AC060F4003114
:1040F000ECE51E0709F470C08091B8058F7B013193
:104100001C45A9F239CF04312CE5120709F476C019
:1041100008F46CC005311C4509F02ECF8091B8051C
:1041200082FB992790F921E0922790FB82F990FB7E
:1041300083F9BDCF0D3F9CE5190709F445C070F424
:104140000B3FFCE51F0751F18091B9058E7F0C3FB5
:104150001C4509F011CF8093B9050ECF0F3F3CE508
:10416000130709F447C040F101151D4509F004CFBC
:104170008091B905982F909591708E7F892B90FB37
:1041800081F9E9CF8091B805816091CF8091B80520
:1041900084608DCF8091B9058160DDCF8091B905B4
:1041A0008260D9CF8091B805806481CF0E94FB16D0
:1041B0008091B80580687BCF8091B9058360CBCFB3
:1041C0008091B8058E7F73CF8091B9058D7FC3CF65
:1041D0008091B8058F7E6BCF8091B8058F7D67CFBA
:1041E0000E94FB168091B8058F7761CF8091B8054A
:1041F000837F5DCF8091B9058C7FADCF0E94FB1688
:104200009091B805892F97FB87F9805850CF9091EE
:104210009305892F8272F801E25CFC45E431F105D7
:1042200008F061C0E952FD4C0C94572E80911C0699
:1042300091E0892780931C0610920B010E94E413E1
:1042400045CC41E054E16CEE73E10E94FF073ECCA7
:104250004CEE53E161E074E1F8CF48E154E161E1F3
:1042600074E1F3CF41E154E168E174E1EECF49E25A
:1042700054E16FE174E1E9CF4FE154E169E274E1A7
:10428000E4CF4DE354E163E374E1DFCF43E354E172
:104290006DE374E1DACF41E554E167E474E1D5CF31
:1042A00047E454E161E574E1D0CF65E082E00E942B
:1042B0005B140CCC68E086E0FACF6EE089E0F7CFC3
:1042C00064E18FE0F4CF67E185E1F1CF80911C06D6
:1042D00083708066AFCF62E289E1E9CF80911C06EE
:1042E00083708C68A7CF0115ECE51E07B9F00E3D71
:1042F000FCE51F0709F44FC006311C4509F052C008
:104300009A7A81E009F480E08093160589E29111A0
:1043100085E30E9432070E941C16D8CB0E94FB1630
:104320002FEF34E38CE0215030408040E1F700C0B3
:104330000000F89481E08093E00080E28093D80050
:104340001092C900EFE1FEE43197F1F700C00000E0
:104350001DBA109268001CBC10BE1FBA10927A00E1
:1043600010926E0010926F00109271001092720005
:104370001092C9001092BC0014B817B81AB81DB832
:1043800010BA1092BC0015B818B81BB81EB811BAF4
:104390000C94003F9BCB0E94FF1198CB06311C452B
:1043A00009F43FC0F60100811181222309F443C0C2
:1043B000C8010E94410FF82E682FC8010E948F0784
:1043C000B8018F2D0E94140D8C01B82EF601E580E6
:1043D000E2943FE0E322F280F11010929205809186
:1043E0009005877079F0FF2069F080E2800F8830B7
:1043F00048F082E00E94B416809190058770AA244C
:10440000A3948111A12C912E92942FE09222FBE093
:10441000F91508F44AC0E92DF0E0E551FD4C0C9483
:10442000572E80911605811104C089E20E9407076A
:1044300072CF85E3FBCFC8010E946607F82EC0CF7C
:10444000212F2F70E22E107F19F0E29490EFE922D5
:10445000FF20C9F0EE2069F080E2800F883010F074
:10446000B1100BC080919305E82AE09293050E9459
:104470001C16802F0E94891B18C080919205E82A83
:10448000E0929205F4CF802F0E94201BEE2069F06D
:10449000E094005E083010F0B11028C080919305C0
:1044A000E822E09293050E941C16292D2850330B18
:1044B0002430310510F40E94F307AA2009F406CB3A
:1044C0008091900580FD02CBF6011282859585953D
:1044D00085950E94D016C6010E94411D80919005CD
:1044E0008595859585950E949116F0CA80919205D3
:1044F000E822E0929205D7CF312F3F70832E107FB4
:10450000103219F0829480EF8822802FBB2041F076
:1045100091E0B91661F1FF20A1F1EE2041F0A9CFA1
:10452000FF20C1F080919605882AE11004C0882DF3
:104530000E94161BBACFE1E0EE12F9CF881609F4FB
:10454000B4CF0E94DC1590939505809394058092DA
:104550009605ABCFE11006C00E94FC06882D0E9494
:104560000B1BA3CFF1E0EF1609F49FCFF5CFFF208F
:1045700029F021E02E1508F498CFD9CFE11095CF7E
:10458000EDCFEE2059F3893349F43FEF87EE93E006
:10459000315080409040E1F700C00000802F0E9421
:1045A000201B83CF812F86958695837061F08130A3
:1045B00009F07BCFC8019370F11002C090E080E059
:1045C0000E94C70772CFC8019370F11002C090E03B
:1045D00080E00E94DD0769CFFF2009F1053F99F0D7
:1045E000063FB9F0043F49F48091170590911805F2
:1045F00081609093180580931705802F0E946A06AA
:104600000E94E81552CF809117059091180582609D
:10461000F0CF80911705909118058460EACF053F8F
:1046200089F0063FA9F0043F49F480911705909165
:1046300018058E7F9093180580931705802F0E9490
:10464000AB05DECF80911705909118058D7FF2CFD5
:1046500080911705909118058B7FECCF812F837087
:1046600009F066C0F11021CF802F82958695877062
:10467000880F880F602F6F70462E512C712C612C83
:10468000082E04C0440C551C661C771C0A94D2F7F3
:1046900040E050E0BA0104FF0FC04FE050E060E09E
:1046A00070E004C0440F551F661F771F8A95D2F72C
:1046B0004095509560957095812F8695869583706D
:1046C000823019F1D8F40091970510919805209146
:1046D000990530919A05813069F044295529662958
:1046E0007729CB01BA0160237123822393230E948F
:1046F000F116DBCE402A512A622A732ACB01BA0175
:104700006429752986299729F2CF442955296629D4
:10471000772900919705109198052091990530917E
:104720009A05CB01BA016027712782279327DFCF33
:104730008695FF2011F0812F8170882309F4B5CE72
:10474000802F829586958770880F880F602F6F70F5
:10475000462E512C712C612C082E04C0440C551C83
:10476000661C771C0A94D2F740E050E0BA0104FFBF
:104770000FC04FE050E060E070E004C0440F551FF0
:10478000661F771F8A95D2F7409550956095709572
:10479000812F869586958370823019F1D8F4009127
:1047A0008A0510918B0520918C0530918D05813003
:1047B00069F04429552966297729CB01BA0160237C
:1047C0007123822393230E9485166FCE402A512A9B
:1047D000622A732ACB01BA0164297529862997298F
:1047E000F2CF442955296629772900918A0510912D
:1047F0008B0520918C0530918D05CB01BA01602786
:10480000712782279327DFCF1F70FF2029F0812F88
:104810000E94D016802F8CCE802F0E940B1B812FE0
:104820000E94911642CE802FE2EFBE1609F456C0C8
:10483000EB1578F0F0EFBF1659F121EFB21609F43D
:1048400045C0FF2009F46DC0E11013CE812F8F7198
:1048500042C033EFB31609F446C094EFB912F1CF5A
:10486000FF2009F453C01F71812F0E94D016F8E079
:104870001F9FC0011124836080939005812F0E94A7
:10488000D0160E94DC1590938F0580938E050DCE77
:10489000FF20B9F0E11009CE1F7161E070E080E007
:1048A00090E004C0660F771F881F991F1A95D2F7F2
:1048B00000918A0510918B0520918C0530918D0512
:1048C0009ECFE1E0EE1508F4F0CDE6CF812F8F7199
:1048D000FF2009F4A5CF0E94D016E7CD812F8F715C
:1048E000FF20C9F39DCF60E070E0CB01FF2009F409
:1048F0006ACF1F7161E070E080E090E004C0660F55
:10490000771F881F991F1A95D2F75DCF81E00E940B
:10491000B41621E02E1508F0C8CD82E00E94B4162E
:10492000C4CDE11030CE812F8F717ACFE2EFBE1669
:10493000D1F1EB1500F1F0EFBF1649F121EFB216FE
:10494000D1F180911905EE2009F441C0882341F08E
:1049500080911A0591E0892780931A051092190514
:10496000802FF11087CD0E94201B86E0F601119266
:104970008A95E9F79ACD34EFB316C1F0B31688F0F3
:1049800085EFB812DECFF11090CD81E007C0FF2097
:1049900009F48BCD80911A0591E0892780931A053F
:1049A00084CD81E0F826F0921A057FCDF1107DCDFF
:1049B00010921A057ACDFF2039F0809119058823CD
:1049C00049F31092190571CDEE2021F36ECD8823A5
:1049D00009F46BCDF11069CD80911A0591E089271A
:1049E00080931A05EECF85E09E012F5F3F4F79013E
:1049F000D90101900D928A95E1F7F6012281898112
:104A00009A8121117AC80E946607082F7EC81F93D9
:104A1000CF93DF9380912005807FC1F480911D05A5
:104A20008823A1F080915205C091210560911B055A
:104A300070911C0540911E0550911F05D62FD7235C
:104A4000DA01A095B09516E0C81304C0DF91CF91AC
:104A50001F91089590E04115510511F0DF3F31F4A9
:104A600001968770F1CF2A0F3B1F17C0189FF001E6
:104A7000199FF00D1124EE5DFA4F21812713F0CF1D
:104A800020812613EDCF22812111EACF23813481A9
:104A90002417350740F3241B350B213A310500F765
:104AA000209120052F7020612093200526E0289F6B
:104AB000F001299FF00D1124E95DFA4F80818F707C
:104AC000806180838BE195E00E94411DDF91CF9151
:104AD0001F910C94BD07BF92CF92DF92EF92FF928D
:104AE0000F931F93CF93DF93CDB7DEB761970FB6C8
:104AF000F894DEBF0FBECDBF8C0185E0F801DE016A
:104B00001D9601900D928A95E1F7D8012C9111968E
:104B10003C9111971296EC90129780911E059091FE
:104B20001F05009709F463C140911B0550911C05B6
:104B3000642F65236F3F09F45AC11396CD90DC9022
:104B4000B0901D05BB2009F413C1C816D906C0F1E9
:104B5000F601E81BF90BCF01FF24F394813A91058C
:104B600008F0F12C80912005982F907FFF2009F408
:104B7000C1C091117DC0FE2C531327C0421325C024
:104B8000E11023C08F708061809320058BE195E058
:104B90000E94411D80912005D80115968C938F2D80
:104BA00061960FB6F894DEBF0FBECDBFDF91CF91F7
:104BB0001F910F91FF90EF90DF90CF90BF900895DD
:104BC000809590958C0D9D1DC7CFCD2829F0822F03
:104BD00083238F3F09F035C180E0B82FB170DB2E01
:104BE00080FF3CC0809152054091210556E084131E
:104BF00015C02D873E878D859E850E94830F292FA6
:104C000022952F702230F0F0243018F59F70F1F0CB
:104C1000F8019581907FD1F4D12C1EC090E0589F6F
:104C2000F001599FF00D1124EE5DFA4F61813613AA
:104C300006C06081261303C06281E6120FC0019690
:104C40008770D5CF9F7011F0882331F3805E883054
:104C500018F3C8010E94411DFD2CA1CFEE2009F4DC
:104C60009ECF80912005816080932005F12C97CF05
:104C7000531313C0421311C0E1100FC0D801159691
:104C80008C93C8010E94411D86E0F801ABE1B5E0BC
:104C900001900D928A95E1F782CF2D873E878D8511
:104CA0009E850E948D0F882309F1EE20F9F08091F6
:104CB0002005803270F020911B0530911C0538874B
:104CC0002F831986DB86CA868C87CE0107960E94C1
:104CD000411D86E0F801ABE1B5E001900D928A95A7
:104CE000E1F70E940725FF24F39459CFC8010E94E1
:104CF000411DF9CF91110CC08BE195E00E94411D3F
:104D000086E0EBE1F5E0DF011D928A95E9F747CFF8
:104D1000531312C0421310C0E1100EC0F801858376
:104D2000C8010E94411DEBE1F5E086E0DF011D9224
:104D30008A95E9F7FB2C33CF2D873E878D859E859D
:104D40000E948D0F882391F2EE2081F28091200540
:104D5000803208F4BECF20911B0530911C053A83A8
:104D600029831B82DD82CC828E83CE010196AFCF58
:104D7000C816D90640F0C81AD90AB1EACB16D10430
:104D800048F0F12CBDCF809590958C0D9D1D813AFA
:104D90009105B8F7FE2CEE2009F4A8CF531316C0E6
:104DA000421314C08091200580FD6ECF982F907F14
:104DB00009F46ACFF8018583903F09F462CF982FF8
:104DC000907F905F8F70892B85835BCF2D873E8787
:104DD0008D859E850E948D0F81117BCF809120054E
:104DE000816080932005C8010E94411DD8CEEE202D
:104DF00009F47CCF2D873E878D859E850E948D0F7F
:104E0000F82E882309F472CF86E0F801ABE1B5E013
:104E100001900D928A95E1F780911B0590911C05F8
:104E20000E94830F92959F70963041F480911A05ED
:104E300091E0892780931A05909319050E94072510
:104E4000AECE81E08E25C9CE0F931F93CF93DF9313
:104E5000CDB7DEB767970FB6F894DEBF0FBECDBFF4
:104E60006D8B7E8B8F8B8E899F89892BE1F0842FB0
:104E700085238F3F09F0BEC05FEF4FEF14C0309124
:104E80001A05332309F468C0E42FF0E036E0539F9D
:104E9000E00DF11D1124EE0FFF1FE451FE4F408184
:104EA0005181822B8C931A8A198A4B8B5C8B85E0FB
:104EB000FE017396DE011D9601900D928A95E1F731
:104EC0000E94DC1500918E0510918F0580179107C7
:104ED00008F445C00E94DC150817190721F08091DD
:104EE000900582FF83C00E94FE1581110E94FC067E
:104EF00086E0FE013D96DE01179601900D928A959F
:104F0000E1F7CE0107960E946B25811113C086E060
:104F1000FE013796DE01119601900D928A95E1F718
:104F20008A859B85892B31F088859F8189238F3FD6
:104F300009F042C016E08091520590912105891335
:104F400029C067960FB6F894DEBF0FBECDBFDF91C4
:104F5000CF911F910F91089580958223A3CF0E9436
:104F6000DC15801B910B019709F0B9CFBCCF96E0FF
:104F7000929FD001939FB00D1124AE5DBA4FFE01F8
:104F8000319601900D929A95E1F7809321050E9448
:104F9000BD07D0CF819FC00111248E5D9A4F0E9422
:104FA0006B25882371F28091520590E001968770FD
:104FB000992780935205BFCF2091210530E0C90188
:104FC000019687709927409152054817190679F67E
:104FD0000E94FB16109221051092520586E0EBE12B
:104FE000F5E0DF011D928A95E9F7A4CF82E00E94E7
:104FF000B41679CF81E090E0042E01C0880F0A94A6
:10500000EAF7A52FB0E0AE5FBA4F2C913D89311180
:1050100036CF322F382335CF8F929F92AF92BF92E7
:10502000CF92DF92EF92FF920F931F93CF93DF9374
:1050300080910C0190910D01892BA1F080919E032C
:105040008F5F80939E0381110DC00E949F1490E09A
:1050500090930D0180930C01892B21F40E948314FD
:105060000E947F11DAEAED2ED5E0FD2E6701C0E047
:1050700010E007E00C0F8C2F0E941615802F0E9465
:1050800016158C2F0E946A15F60191916F01D0E0E0
:10509000891719F031978083D1E0802F0E946A151B
:1050A000F6019681891709F464C0868381E08D2B0F
:1050B000182B0E947910CF5FC730D9F60E94DC15FB
:1050C0006AEF70E00E942F2EB82FA0919903AA23B7
:1050D00009F4F0C110929903E091A005F091A105A7
:1050E0004F012EE0820E911C40E00BEFCAEFCC2E58
:1050F000D12C51915B3F81F0652F70E02B2F392F20
:105100008517C8F1261B370B2E313105D4F19F01CD
:1051100021503109E90108838E169F0651F740930B
:105120009903111102C04111C7C110929803A091B7
:10513000A005B091A10520919903EDEBF5E04BECB2
:1051400055E090E06191E70139917E01631741F0EC
:105150006C916B3FC1F48C93EF012197388321E070
:1051600011964E175F0771F7209399039093980358
:10517000A7C180E09CCFE601C61BD70B2C0F3D1FBB
:10518000C3CF4A2FC9CF91E0EBCF0197A109B10955
:10519000B0C1840F951FA61FB71FE1C1109219015E
:1051A000C0921406D0921506E0921606F0921706E9
:1051B00081E080930B01F6C180910701081316C0AE
:1051C00090911C0693702091060130E081E09217C7
:1051D000130609F480E0817080931B01053110F5FE
:1051E000E02FF0E0E950FD4C0C94572E81E0F3CF16
:1051F000882309F443C080911901C82FCC0FCC0F2C
:10520000C80FB5E0FB2EFC0EEF2CE0E3EF1510F419
:10521000A0E3EA2ED0E0CE1538F081E0FFE2AF2E19
:10522000AF1460F580E02AC020E040E060E0CE01ED
:105230000E944B082196EFCF80911901C82FCC0F07
:10524000CC0FC80F75E0E72EEC0EFE2CE0E3BE2E6F
:10525000BE1410F460E3F62E60911D0670911E06D8
:1052600080911F060E94BA0AD62EC72EB82ED0E013
:10527000CF15B0F081E03FE23E15A0F29091190108
:105280009F5F9093190181118DC182E080930B0182
:1052900080911B01811186C1011184C183E089CFF6
:1052A000FE01E85BFC4F808190911A01892331F067
:1052B0002B2D4D2D6C2DCE010E944B082196D8CF61
:1052C00080911901C82FCC0FCC0FC80F55E0F52ED7
:1052D000FC0EDF2C80E38F1510F440E3D42EC09039
:1052E0001E06B0901F062091200630E4E32E3E2DCE
:1052F000329F312D1124E32ED0E0CD1530F081E026
:105300009FE29F1508F0BACF8DCFFE01E85BFC4FFE
:10531000808190911A018923B9F0FE01EE0FFF1FE1
:10532000E751FD4F808182958F7060911D068E9DA3
:10533000600D11247C2D8B2D0E94BA0A462F282F38
:10534000672FCE010E944B082196D7CF809119017B
:10535000C82FCC0FCC0FC80F95E0F92EFC0EEF2C08
:10536000D0E3DF1510F480E3E82ED0901D06D09135
:105370001E06C0901F06609120066695669566958C
:1053800080911406909115060E94B00A0E94390A75
:10539000805887FD8195880F282F3C2D239F212D34
:1053A0001124822F6D2D7D2F0E94BA0AD62EC72E72
:1053B000B82ED0E0CE1508F0A2CFFE01E85BFC4F7E
:1053C000808190911A01892331F02B2D4D2D6C2D68
:1053D000CE010E944B082196EDCF84E499E00E9413
:1053E000870C4CCF8AE199E0FACF8BE19AE00E94DA
:1053F0002B0C44CF8CEF99E0FACF81EE99E00E941C
:10540000AE0B3CCF85EC99E0FACF88E199E0E7CF8D
:105410008FE099E0E4CF86E099E0E1CF8DEE98E06F
:10542000DECF8FED98E0EBCF88E89AE0E0CF84EB19
:1054300099E0DDCF80EA99E0E2CF82EB98E00E942C
:105440004C0B1CCF84E898E0FACF8DE498E0F7CFBE
:105450000093070180911C068370809306010E94CF
:1054600098121CCF409114065091150660911606B3
:10547000709117062FB7F89480919B0590919C0529
:10548000A0919D05B0919E052FBF84179507A60793
:10549000B70760F0841B950BA60BB70B4A97A105C5
:1054A000B10508F47FC010920B017CC00197A109DF
:1054B000B109F0CF111139CE90919803911135CEE9
:1054C00040919A0350919B0360919C0370919D03BE
:1054D0002FB7F89480919B0590919C05A0919D0514
:1054E000B0919E052FBF84179507A607B70708F44C
:1054F0004CCE841B950BA60BB70B2FB7F894C0901E
:105500009B05D0909C05E0909D05F0909E052FBFD7
:10551000C0929A03D0929B03E0929C03F0929D0369
:10552000409118065091190660911A0670911B0659
:105530004F3FDFEF5D076D077D07C9F0AA27BB2747
:105540004C015D0180949094A094B09484169506CB
:10555000A606B70608F01DCE8FEF9FEFDC01809303
:10556000180690931906A0931A06B0931B06809113
:10557000E50500E0811108C080911C06082F03702A
:1055800019F0082F0695069580910B01813009F4DA
:1055900013CE882309F402CE823009F459CF833028
:1055A00009F460CF812FDF91CF911F910F91FF9070
:1055B000EF90DF90CF90BF90AF909F908F90089525
:1055C000CDB7DEB72A970FB6F894DEBF0FBECDBFBA
:1055D00084B7877F84BF0FB6F894A8958091600048
:1055E000886180936000109260000FBE80E890E0B8
:1055F0000FB6F89480936100909361000FBE85B759
:10560000806885BF85B7806885BF0E9416040E94A8
:10561000E1048091E20084608093E20078948091BC
:105620000A068823A1F01091E9001F709091EC0008
:10563000892F817090FD80E8182B1092E9008091ED
:10564000E80083FD0E9410171F701093E90082E0AC
:1056500084BD93E095BD9AEF97BD80936E000E9444
:105660009F1490E090930D0180930C010E9479109B
:105670000E948810AAEAB5E0EDEBF5E011921D92C8
:1056800025E0EB3CF207D1F78EE090E00E94EC2E93
:105690008093A0059093A105FC010E962BEF21931A
:1056A000E817F907E1F790E080E00E94B22E8F3E04
:1056B0009E4F11F00E94FF110E9483148CE090E035
:1056C0000E94A42E90E0B0E0A0E08093A205909309
:1056D000A305A093A405B093A50589EA8093800053
:1056E00089E08093810024982C983F988AB18F7C20
:1056F0008AB96E98479A8BB180638BB9769A8FE09E
:1057000090E00E94AC2E6093A6057093A70580934D
:10571000A8059093A90567708FEF869FB0011124AB
:105720007595679575956795772770938900609350
:10573000880070938B0060938A0070938D00609353
:105740008C009091A60594FF9FC080931A010E943F
:105750007F1190E080E00E94B22E8F3E9E4F11F0AC
:105760000E94FF1182E090E00E94A42E8093D50554
:105770000E948F109093B9058093B80583E090E064
:105780000E94A42E682F70E090E080E00E94F11645
:1057900080911C06837011F410920B0180911C06FD
:1057A0008C7F816080931C068EE091E09093BB0516
:1057B0008093BA05DD24D394CC24CA9480E1B82E1A
:1057C00092E1A92E28E1E22EF12C30E4932E809173
:1057D0000A06853009F45BC00E940C28E6EDF5E06E
:1057E000ADEBB5E010E000E0302F8D91219128174E
:1057F00009F49EC090E0882483942827422F4821F2
:1058000009F491C099833A83882191E009F490E0EA
:105810009B830E94DC158160782F9D838C83498156
:105820005A816B818D810E942427F801EA52FA4F38
:105830008081882680828091D2059091D3050E9434
:10584000D2069C019091D105992319F02D31310593
:1058500078F02091CD058090CE050091CF05109174
:10586000D00521117BC0882D802B812B09F0ECC045
:105870000E94F3079091D405891709F4A8CF0E94DC
:10588000F3078093D405A3CF10921A0160CF0E9432
:10589000E80F80910A06843019F11092BC050FB60A
:1058A000F894A895E09260000FBE909260000E946C
:1058B000E80F83B7817F846083BF83B7816083BF34
:1058C0007894889583B78E7F83BF0FB6F894A89598
:1058D00080916000886180936000109260000FBE2C
:1058E00080910906882309F472CF0E949F1490E0EA
:1058F00090930D0180930C010E9479100E948810F2
:10590000EDEBF5E0119245E0EB3CF407D9F70E948E
:105910000C28EDEBF5E08191811182C085E0EB3C34
:10592000F807C9F754CF9F5F880C963009F066CF0F
:105930000F5F1F4F0E30110509F056CFCE82CF8278
:1059400018860E94DC158160782F9A8789874E819E
:105950005F8168858A850E9424276DCF9F3F19F05B
:105960009F5F9093D105121624F40E944A068093FB
:10597000CD058091CD0587FF05C00E944A0681951F
:105980008093CD05181424F40E944A068093CE0516
:105990008091CE0587FF05C00E944A0681958093BD
:1059A000CE053091CD053323A1F02091CE052223E1
:1059B00081F045EB3403C0011124992359F19093F0
:1059C000CD0545EB240390011124332331F13093AD
:1059D000CE05101624F40E942A068093CF058091EC
:1059E000CF0587FF05C00E942A0681958093CF05C9
:1059F000111624F40E942A068093D0058091D005C8
:105A000087FF05C00E942A0681958093D0050E94D9
:105A1000E8152ECFD092CD05D4CFD092CE05D9CFD8
:105A2000B9BCA9BC09B400FEFDCF8091D8008F7D20
:105A30008093D8008091E00082608093E0008091A4
:105A4000E00081FDFCCFC3CE9F3F09F089CF9ACF04
:105A50001F921FB61F9211248F939F93AF93BF93F2
:105A60008091BC05811113C080919B0590919C058C
:105A7000A0919D05B0919E054196A11DB11D8093F9
:105A80009B0590939C05A0939D05B0939E05BF91A7
:105A9000AF919F918F911F901FBE1F9018951092EC
:105AA000B9008CE08093B8000895EF92FF920F93B5
:105AB0001F93CF93DF93182FEB011092BC0084EA61
:105AC0008093BC000E94DC157C018091BC0087FFA4
:105AD00027C08091B900887F883029F08091B90073
